:100000000C945D000C94AF060C9488060C9485004B
:100010000C9485000C9485000C9485000C9485004C
:100020000C9485000C9485000C9485000C9485003C
:100030000C9485000C9485000C9485000C9485002C
:100040000C943E060C9485000C94FC060C94D60689
:100050000C9485000C9485000C9485000C9485000C
:100060000C942E070C94850000000000240027004B
:100070002A0000000000250028002B0004040404CE
:100080000404040402020202020203030303030342
:10009000010204081020408001020408102001021F
:1000A00004081020000000080002010000030407FB
:1000B00000000000000000004D0811241FBECFEF1B
:1000C000D8E0DEBFCDBF22E0ACE6B1E001C01D92BA
:1000D000A13EB207E1F711E0A0E0B1E0ECEEF9E1FA
:1000E00002C005900D92AC36B107D9F710E0CDE50E
:1000F000D0E004C02197FE010E94FC0ACC35D10754
:10010000C9F70E948E080C94F40C0C940000FC01BA
:10011000538D448D252F30E0842F90E0821B930B6C
:10012000541710F0CF96089501970895FC01918D12
:10013000828D981761F0A28DAE0FBF2FB11D5D9615
:100140008C91928D9F5F9F73928F90E008958FEFB7
:100150009FEF0895FC01918D828D981731F0828D6B
:10016000E80FF11D858D90E008958FEF9FEF0895C2
:10017000FC01918D228D892F90E0805C9F4F821B26
:1001800091098F7399270895FC01A48DA80FB92FA9
:10019000B11DA35ABF4F2C91848D90E001968F73AF
:1001A0009927848FA689B7892C93A089B1898C91CE
:1001B000837080648C93938D848D981306C002881D
:1001C000F389E02D80818F7D80830895EF92FF92E7
:1001D0000F931F93CF93DF93EC0181E0888F9B8D6A
:1001E0008C8D98131AC0E889F989808185FF15C024
:1001F0009FB7F894EE89FF896083E889F989808147
:100200008370806480839FBF81E090E0DF91CF9115
:100210001F910F91FF90EF900895F62E0B8D10E037
:100220000F5F1F4F0F731127E02E8C8D8E110CC0A6
:100230000FB607FCFACFE889F989808185FFF5CFF1
:10024000CE010E94C400F1CFEB8DEC0FFD2FF11D0C
:10025000E35AFF4FF0829FB7F8940B8FEA89FB892E
:1002600080818062CFCFCF93DF93EC01888D88238C
:10027000B9F0AA89BB89E889F9898C9185FD03C009
:10028000808186FD0DC00FB607FCF7CF8C9185FFEE
:10029000F2CF808185FFEDCFCE010E94C400E9CF6F
:1002A000DF91CF91089581E392E00E94B80021E0B0
:1002B000892B09F420E0822F089580E090E0892BBB
:1002C00029F00E94530181110C940000089590E0E0
:1002D000FC01EC55FF4F2491FC01E057FF4F349196
:1002E000FC01E458FF4FE491EE23C9F0222339F0DA
:1002F000233001F1A8F4213019F1223029F1F0E086
:10030000EE0FFF1FEE58FF4FA591B4918FB7F894F1
:10031000EC91611126C030953E233C938FBF089528
:100320002730A9F02830C9F0243049F780918000A7
:100330008F7D03C0809180008F7780938000DFCF16
:1003400084B58F7784BDDBCF84B58F7DFBCF809163
:10035000B0008F778093B000D2CF8091B0008F7DB6
:10036000F9CF3E2BDACF3FB7F8948091DB01909123
:10037000DC01A091DD01B091DE0126B5A89B05C08E
:100380002F3F19F00196A11DB11D3FBFBA2FA92F14
:10039000982F8827BC01CD01620F711D811D911D11
:1003A00042E0660F771F881F991F4A95D1F708957D
:1003B000089508950895AF92BF92CF92DF92EF9281
:1003C000FF920F931F93CF93DF936C017B018B01FF
:1003D000040F151FEB015E01AE18BF08C017D1074F
:1003E00059F06991D601ED91FC910190F081E02DD9
:1003F000C6010995892B79F7C501DF91CF911F912E
:100400000F91FF90EF90DF90CF90BF90AF90089545
:100410002091AE01260F3327331F21323105ECF432
:1004200020912B02FC0190E080E0243069F082E012
:100430000895A091AE012191AC0142575E4FA40FE7
:10044000B52FB11D2C930196861798F38091AE01BC
:10045000680F6093AE0180E0089581E008951092E6
:100460002B0281E080930A021092050261E082E192
:100470000E94670161E083E10E946701E9EBF0E01F
:1004800080818E7F808380818D7F808388E48093CC
:10049000B80085E48093BC000895CF93DF9391E08A
:1004A00090938D018823B9F0C091B800D091BA0023
:1004B0008091BC008A7B8093BC0060E082E10E9456
:1004C000670160E083E10E9467010E942F02D093E0
:1004D000BA00C093B800DF91CF910895CF92DF9218
:1004E000EF92FF920F931F93CF93DF93D82FC62FD6
:1004F000613208F098C00E94B3016B017C018091C9
:100500002B0281116BC081E080932B0280930A0241
:100510009FEF90930902109208029C0F909307029C
:100520008093060280910602DD0FD82BD09306023D
:1005300080910502813009F078C0109205020E9476
:10054000B3016B017C01809106028093BB00809116
:100550002D0290912E02A0912F02B0913002892B92
:100560008A2B8B2BA1F00E94B30100912D021091D8
:100570002E0220912F02309130026C197D098E09D4
:100580009F09061717072807390708F448C0809104
:10059000BC0083FDD8CF85EC8093BC000E94B301E2
:1005A0006B017C0180912B02813009F440C0809165
:1005B00008028C1710F4C0910802E5EEF1E0ABE000
:1005C000B2E080E08C1355C08C2FDF91CF911F914A
:1005D0000F91FF90EF90DF90CF90089580912D02C2
:1005E00090912E02A0912F02B0913002892B8A2B7C
:1005F0008B2B09F484CF0E94B30100912D0210913E
:100600002E0220912F02309130026C197D098E0943
:100610009F09061717072807390708F070CF809140
:100620002C020E944D02C0E0CFCF85EEB5CF809165
:100630002D0290912E02A0912F02B0913002892BB1
:100640008A2B8B2B09F4AECF0E94B30100912D02AF
:1006500010912E0220912F02309130026C197D09E9
:100660008E099F09061717072807390708F09ACF40
:10067000D6CF91919D938F5FA5CF0895E091E00132
:100680008091DF01E81730F4F0E0E55FFD4F8081F5
:1006900090E008958FEF9FEF08959091E001809191
:1006A000DF012FEF3FEF981748F4E92FF0E0E55F07
:1006B000FD4F208130E09F5F9093E001C9010895D4
:1006C0008091DF019091E001891B990B0895CF92F1
:1006D000DF92EF92FF920F931F93CF93DF937C01F2
:1006E000CB018A012091E401222389F0EB016B0107
:1006F000C40ED51ECC15DD0569F06991D701ED91C9
:10070000FC910190F081E02DC7010995F3CF642F92
:100710000E940802C801DF91CF911F910F91FF90B5
:10072000EF90DF90CF900895CF93DF931F92CDB7D6
:10073000DEB769832091E4012223F9F02091E101E1
:10074000203258F021E030E0FC013383228390E036
:1007500080E00F90DF91CF9108958091E201E82F22
:10076000F0E0E359FE4F998190838F5F8093E2011F
:100770008093E10181E090E0ECCF61E0CE01019651
:100780000E940802F7CFCF92DF92EF92FF920F9371
:100790001F93CF93DF93D091E10181E0D13208F034
:1007A0009CC0C091E3010E94B3016B017C01809168
:1007B0002B0281116CC082E080932B0281E0809338
:1007C0000A028FEF8093090210920802D093070269
:1007D000ADE6B1E0E5EEF1E080E0D8138DC0109217
:1007E000060280910602CC0FC82BC09306028091AE
:1007F0000502813009F084C0109205020E94B30105
:100800006B017C01809106028093BB0080912D02D8
:1008100090912E02A0912F02B0913002892B8A2B49
:100820008B2BA1F00E94B30100912D0210912E029A
:1008300020912F02309130026C197D098E099F0999
:10084000061717072807390708F442C08091BC0033
:1008500083FDD8CF85EC8093BC000E94B3016B016F
:100860007C0180912B02823009F44CC080910902F6
:100870008F3F09F469C080910902803209F466C093
:1008800080910902803309F463C084E026C080911E
:100890002D0290912E02A0912F02B0913002892B4F
:1008A0008A2B8B2B09F483CF0E94B30100912D0278
:1008B00010912E0220912F02309130026C197D0987
:1008C0008E099F09061717072807390708F06FCF09
:1008D00080912C020E944D0285E01092E20110925C
:1008E000E1011092E401DF91CF911F910F91FF90F0
:1008F000EF90DF90CF9008959D9191938F5F6DCF92
:1009000085EEA9CF80912D0290912E02A0912F0209
:10091000B0913002892B8A2B8B2B09F4A2CF0E9435
:10092000B30100912D0210912E0220912F023091DF
:1009300030026C197D098E099F09061717072807D1
:10094000390708F08ECFC4CF80E0C7CF82E0C5CF93
:1009500083E0C3CF1F93CF93DF93162FCAEDD2E06E
:10096000A881B9819A8121E02093E4019093E30169
:100970001092E2011092E101ED91FC91119701902A
:10098000F081E02D682FCD01099588819981DC01E6
:10099000ED91FC910190F081E02D612F0995888106
:1009A0009981DF91CF911F910C94C30390E080E077
:1009B0000895EF92FF920F931F93CF93DF937C01E3
:1009C0008B01CAEDD2E0888199812A8131E0309390
:1009D000E4012093E3011092E2011092E101DC01B5
:1009E000ED91FC910190F081E02D60E10995888105
:1009F00099810E94C30362E08A810E946E02109274
:100A0000E0018093DF0188819981DC01ED91FC9107
:100A10000284F385E02D0995F7018083888199810F
:100A2000DC01ED91FC910284F385E02D0995F8013C
:100A30008083DF91CF911F910F91FF90EF900895E8
:100A4000CF93DF93CAEDD2E0A881B9819A8121E0EA
:100A50002093E4019093E3011092E2011092E101EE
:100A6000ED91FC9111970190F081E02D682FCD015F
:100A70000995888199810E94C30361E08A810E945F
:100A80006E021092E0018093DF0188819981DC0180
:100A9000ED91FC910284F385E02D0995DF91CF91D2
:100AA0000895AF92BF92CF92DF92EF92FF920F9391
:100AB0001F93CF93DF93C82FA62E12E00CE0B12C2A
:100AC000883028F0C85013E00DE0BB24B3948B2D80
:100AD0000E942005C12CD12C7601C39404C0CC0CFB
:100AE000DD1CEE1CFF1CCA95D2F792E0D82FDC2942
:100AF000A91619F0DC2DD095D823802F0E9420054F
:100B000092E0C82FCC29A91619F0CC2DC095C82386
:100B1000812F0E942005C82A6D2F8B2D0E94AA04C8
:100B20006C2F802F0E94AA046C2D812FDF91CF9112
:100B30001F910F91FF90EF90DF90CF90BF90AF90FB
:100B40000C94AA048FE00E942005803411F08032BA
:100B500039F480916C0191E0892780936C010895AC
:100B60009FEF980F923010F0843019F481E0809359
:100B7000D5010895009769F0FC0101900020E9F784
:100B80003197AF01481B590BBC0181E392E00C94F3
:100B9000DB0190E080E00895CF93DF93EC01888142
:100BA0009981009711F00E949E0B198218821D8274
:100BB0001C821B821A82DF91CF9108950F931F939D
:100BC000CF93DF93EC0188819981009759F02A81B6
:100BD0003B812617370730F081E0DF91CF911F91DD
:100BE0000F9108958B016F5F7F4F0E94270C009734
:100BF00059F0998388831B830A832C813D81232BA1
:100C000059F7FC011082E8CF80E0E7CF85ED8093B3
:100C1000BC0080912D0290912E02A0912F02B091E4
:100C200030020796A11DB11D23E0B695A7959795B3
:100C300087952A95D1F72091BC0024FD03C010921E
:100C40002B02089540912D0250912E0260912F02A7
:100C500070913002452B462B472B69F30097A10575
:100C6000B10541F025E32A95F1F700000197A109AC
:100C7000B109E1CF80912C020C944D021F920F928A
:100C80000FB60F9211242F933F938F939F93AF939F
:100C9000BF938091D7019091D801A091D901B091D3
:100CA000DA013091D60123E0230F2D3758F5019654
:100CB000A11DB11D2093D6018093D7019093D80137
:100CC000A093D901B093DA018091DB019091DC010E
:100CD000A091DD01B091DE010196A11DB11D8093AF
:100CE000DB019093DC01A093DD01B093DE01BF91A5
:100CF000AF919F918F913F912F910F900FBE0F90C9
:100D00001F90189526E8230F0296A11DB11DD2CF82
:100D10001F920F920FB60F9211242F933F934F9370
:100D20005F936F937F938F939F93AF93BF93EF9353
:100D3000FF93E0910201F09103010995FF91EF917A
:100D4000BF91AF919F918F917F916F915F914F91E3
:100D50003F912F910F900FBE0F901F9018951F92EB
:100D60000F920FB60F9211242F933F934F935F93DF
:100D70006F937F938F939F93AF93BF93EF93FF9363
:100D8000E0910001F09101010995FF91EF91BF9170
:100D9000AF919F918F917F916F915F914F913F9113
:100DA0002F910F900FBE0F901F9018951F920F92CA
:100DB0000FB60F9211242F933F934F935F936F932E
:100DC0007F938F939F93AF93BF93EF93FF9381E3B1
:100DD00092E00E94C400FF91EF91BF91AF919F916B
:100DE0008F917F916F915F914F913F912F910F90D4
:100DF0000FBE0F901F9018951F920F920FB60F9273
:100E000011242F938F939F93EF93FF93E0914102CF
:100E1000F09142028081E0914702F091480282FD08
:100E20001BC0908180914A028F5F8F7320914B028B
:100E3000821741F0E0914A02F0E0EF5CFD4F958FA0
:100E400080934A02FF91EF919F918F912F910F9084
:100E50000FBE0F901F9018958081F4CF1F920F92B4
:100E60000FB60F9211242F933F934F935F936F937D
:100E70007F938F939F93AF93BF93EF93FF93809153
:100E8000B900887F803609F44AC0F0F5883209F449
:100E9000A7C018F5803109F49BC0B8F4882309F481
:100EA000F9C0883009F494C0FF91EF91BF91AF91E0
:100EB0009F918F917F916F915F914F913F912F9172
:100EC0000F900FBE0F901F901895883109F488C0BD
:100ED000803251F78093090214C0803409F49DC018
:100EE00040F48033B9F38833F9F68093090285EC36
:100EF000B0C0803509F485C0883509F496C08834BF
:100F000099F60E940606D0CF883909F48CC038F5CE
:100F1000883729F050F4883611F0803729F683E0BD
:100F200080932B021092D00157C0883809F47BC0FF
:100F3000803919F0803809F0B7CF8091D001803224
:100F400008F071C0E091D00181E08E0F8093D00154
:100F50008091BB00F0E0E055FE4F80833DC0803BB8
:100F600039F0E0F4803A09F479C0883A09F09CCF6E
:100F700084E080932B021092AF011092AE01E091B9
:100F8000D301F091D40109958091AE0181110FC078
:100F900081E08093AE0110928E0109C0803C09F47B
:100FA000A6CF883C09F4A3CF883B09F07DCFE09120
:100FB000AF0181E08E0F8093AF01F0E0E257FE4F6A
:100FC00080818093BB009091AF018091AE0129C0D8
:100FD000809106028093BB0085EC8093BC0064CFB7
:100FE0009091080280910702981758F5E091080245
:100FF00081E08E0F80930802F0E0EB51FE4F80817C
:10100000E9CFE091080281E08E0F80930802809181
:10101000BB00F0E0EB51FE4F80839091080280917D
:1010200007029817C8F285E8D8CFE091080281E05E
:101030008E0F809308028091BB00F0E0EB51FE4FD1
:10104000808380910A0281115CCF81E08093050248
:1010500084EA8093BC0010922B0226CF85EC80930B
:10106000BC0010922B028091D001803230F4E091CC
:10107000D001F0E0E055FE4F10826091D00170E0A9
:10108000E091D101F091D20180EB91E009951092AD
:10109000D0010ACF1092090234CFE1E3F2E01382CB
:1010A000128288EE93E0A0E0B0E084839583A6836B
:1010B000B7832EE031E03183208325EC30E03587A3
:1010C000248724EC30E03787268720EC30E0318B12
:1010D000208B21EC30E0338B228B22EC30E0358BFF
:1010E000248B26EC30E0378B268B118E128E138EDC
:1010F000148EEEECF2E01382128284839583A68331
:10110000B78380E291E091838083AAEDB2E087E229
:1011100012968C931297ED93FC930895CF93DF93DF
:10112000CDB7DEB760970FB6F894DEBF0FBECDBF68
:10113000789484B5826084BD84B5816084BD85B5B2
:10114000826085BD85B5816085BD80916E008160BE
:1011500080936E0010928100809181008260809364
:101160008100809181008160809381008091800066
:101170008160809380008091B10084608093B10091
:101180008091B00081608093B00080917A0084608B
:1011900080937A0080917A00826080937A008091B7
:1011A0007A00816080937A0080917A0080688093D1
:1011B0007A001092C1001092E0011092DF011092AB
:1011C000E2011092E1010E942F0288ED91E09093DC
:1011D000D4018093D30189ED91E09093D201809363
:1011E000D10160E28AE00E94AA048091DA02909123
:1011F000DB022091DC0231E03093E4012093E30133
:101200001092E2011092E101DC01ED91FC9101905C
:10121000F081E02D6CE009958091DA029091DB027B
:10122000DC01ED91FC910190F081E02D6FEF0995CB
:101230008091DA029091DB02DC01ED91FC9101904A
:10124000F081E02D6FEF09958091DA029091DB0239
:101250000E94C30362E088E00E94510562E089E0D9
:101260000E94510562E08AE00E94510562E08DE033
:101270000E94510562E08EE00E94510561E08FE01E
:101280000E94510562E080E00E94510562E081E029
:101290000E94510562E082E00E94510562E083E015
:1012A0000E94510562E084E00E94510562E085E001
:1012B0000E94510562E086E00E94510562E087E0ED
:1012C0000E9451058AE00E942005682F6F7B8AE00A
:1012D0000E94AA0467E685E00E94AA0467E089E00C
:1012E0000E94AA0460E087E00E94AA04BE016F5F2A
:1012F0007F4FCE0107960E94D904E3E9F0E02491E4
:10130000EFE7F0E084918823C9F090E0880F991FFF
:10131000FC01E859FF4F45915491FC01EE58FF4FF5
:10132000A591B4919FB7F894FA013081822F8095EE
:1013300083238083EC91E22BEC939FBF82EA95E0BC
:10134000909303018093020180916900837F8860FC
:1013500080936900E99A60E082E10E94AA0460E05B
:1013600083E10E94AA047E01FDE0EF0EF11C90E0F3
:10137000C92E90E0D92E83E10E942005982E188670
:101380001F821A8619861C861B866AE070E0CE01D1
:1013900007960E94DE058111A0C0CE0107960E942B
:1013A000CC051A8219821C821B821E821D820F812B
:1013B00018850115110569F0AB84BC84B501CE0117
:1013C00001960E94DE05811193C0CE0101960E9414
:1013D000CC054AE0B701892D90E00E94900AF70100
:1013E00001900020E9F73197EE19FF09B9F00D815E
:1013F0001E810E0F1F1FB801CE0101960E94DE054F
:10140000882309F47DC029813A818D819E81B701AD
:10141000820F931F0E94ED0C1E830D8389819A8198
:101420000E94BA0589819A81009711F00E949E0B53
:101430008F819885009711F00E949E0B8091D501B5
:10144000882361F08FE00E942005813009F05DC0A3
:1014500089E391E00E94BA051092D50183E10E94D0
:10146000200590E0825D9E4F0E94BA05BE016F5F2D
:101470007F4FCE0107960E94D9040E94B3012B0131
:101480003C0184E6882E912CA12CB12C0E94B30142
:101490006419750986099709683E734081059105AD
:1014A000A8F321E0821A9108A108B10888EE480E3D
:1014B00083E0581E611C711C81149104A104B104C5
:1014C00029F7C114D10409F456CF0E94530188238F
:1014D00009F451CF0E9400004ECF8AE090E09C8733
:1014E0008B876EE271E08F8198850E94ED0C59CF59
:1014F000BE82AD82B80189819A810E94ED0C69CFCC
:10150000CE0101960E94CC0589CF823019F48AE47D
:1015100091E0A0CF843009F09FCF8BE591E09ACF86
:10152000BB274A3031F4992322F4BDE2909581958E
:101530009F4F0C949C0ABB27FB015527AA27880FB5
:10154000991FAA1FA41710F0A41B83955051B9F737
:10155000A05DAA3308F0A95DA193009779F7B111B6
:10156000B1931192CB010C94B50ADC01FC01672FF9
:1015700071917723E1F7329704C07C916D9370836A
:101580006291AE17BF07C8F308952F923F924F9212
:101590005F926F927F928F929F92AF92BF92CF9203
:1015A000DF92EF92FF920F931F93CF93DF93CDB70C
:1015B000DEB7CA1BDB0B0FB6F894DEBF0FBECDBF84
:1015C00009942A88398848885F846E847D848C8455
:1015D0009B84AA84B984C884DF80EE80FD800C815E
:1015E0001B81AA81B981CE0FD11D0FB6F894DEBF41
:1015F0000FBECDBFED010895EE0FFF1F0590F491D2
:10160000E02D09940F931F93CF93DF9382309105C0
:1016100010F482E090E0E091DF02F091E00230E02F
:1016200020E0B0E0A0E0309799F42115310509F4ED
:101630004AC0281B390B24303105D8F58A819B819B
:101640006115710589F1FB0193838283FE0111C04D
:10165000408151810281138148175907E0F04817F2
:10166000590799F4109761F012960C9312971396FC
:101670001C933296CF01DF91CF911F910F91089566
:101680000093DF021093E002F4CF2115310551F0F1
:101690004217530738F0A901DB019A01BD01DF01B0
:1016A000F801C1CFEF01F9CF9093E0028093DF0200
:1016B000CDCFFE01E20FF31F8193919322503109A8
:1016C00039832883D7CF2091DD023091DE02232B8E
:1016D00041F420910601309107013093DE022093FE
:1016E000DD0220910401309105012115310541F4FD
:1016F0002DB73EB74091080150910901241B350BCD
:10170000E091DD02F091DE02E217F307A0F42E1B58
:101710003F0B2817390778F0AC014E5F5F4F241755
:10172000350748F04E0F5F1F5093DE024093DD02F5
:10173000819391939FCFF0E0E0E09CCFCF93DF9334
:101740000097E9F0FC01329713821282A091DF0228
:10175000B091E002ED0130E020E01097A1F420818B
:101760003181820F931F2091DD023091DE02281714
:10177000390709F061C0F093DE02E093DD02DF91EA
:10178000CF910895EA01CE17DF07E8F54A815B8122
:101790009E0141155105B1F7E901FB83EA834991A7
:1017A0005991C40FD51FEC17FD0761F48081918119
:1017B0000296840F951FE901998388838281938122
:1017C0009B838A83F0E0E0E012968D919C911397C1
:1017D0000097B9F52D913C911197CD010296820F9A
:1017E000931F2091DD023091DE022817390739F668
:1017F000309751F51092E0021092DF02B093DE02B2
:10180000A093DD02BCCFD383C28340815181840F7A
:10181000951FC817D90761F44E5F5F4F8881998182
:10182000480F591F518340838A819B819383828310
:101830002115310509F0B0CFF093E002E093DF020B
:101840009ECFFD01DC01C0CF13821282D7CFB0E062
:10185000A0E0EDE2FCE00C94C70A8C01009751F483
:10186000CB010E94020B8C01C801CDB7DEB7E0E1CD
:101870000C94E30AFC01E60FF71F9C01225031098A
:10188000E217F30708F49DC0D901CD91DC911197BF
:10189000C617D70798F0C530D10530F3CE010497AD
:1018A0008617970708F3C61BD70B2297C193D193CE
:1018B0006D937C93CF010E949E0BD6CF5B01AC1A37
:1018C000BD0A4C018C0E9D1EA091DF02B091E0027A
:1018D000512C412CF12CE12C109731F58091DD0237
:1018E0009091DE028815990509F05CC046165706EE
:1018F00008F058C08091040190910501009741F4CF
:101900008DB79EB74091080150910901841B950B3A
:10191000E817F90708F055C0F093DE02E093DD0206
:10192000F90171836083A0CF8D919C9111971296DC
:101930006C90129713967C901397A815B90559F5DA
:101940006C0142E0C40ED11CCA14DB0420F1AC01CE
:101950004A195B09DA011296159780F06282738248
:1019600051834083D9016D937C93E114F10471F0AC
:10197000D7011396FC93EE93129776CF22968C0F95
:101980009D1FF90191838083F301EFCFF093E00273
:10199000E093DF0269CF4816590608F42C017D0157
:1019A000D3019ACFCB010E94020B7C01009749F032
:1019B000AE01B8010E94E40CC8010E949E0B870191
:1019C00053CF10E000E050CFFB01DC0102C00190DA
:1019D0000D9241505040D8F70895FB01DC01019071
:0C19E0000D920020E1F70895F894FFCF6D
:1019EC00DA01DA010000E102800000000000E600EC
:1019FC00DB0187003301B8009600AA00000000004C
:101A0C0094036703D6043D0360034D033E03506FFC
:101A1C00727420422069733A00427574746F6E318F
:101A2C0020507265737365640A00427574746F6E2E
:101A3C003220507265737365640A00427574746F5A
:0C1A4C006E3320507265737365640A00ED
:00000001FF
