:100000000C945D000C9475060C944E060C948500BF
:100010000C9485000C9485000C9485000C9485004C
:100020000C9485000C9485000C9485000C9485003C
:100030000C9485000C9485000C9485000C9485002C
:100040000C9404060C9485000C94C2060C949C0637
:100050000C9485000C9485000C9485000C9485000C
:100060000C94F4060C948500000000002400270086
:100070002A0000000000250028002B0004040404CE
:100080000404040402020202020203030303030342
:10009000010204081020408001020408102001021F
:1000A00004081020000000080002010000030407FB
:1000B0000000000000000000130811241FBECFEF55
:1000C000D8E0DEBFCDBF11E0A0E0B1E0E8E9F3E1A8
:1000D00002C005900D92A434B107D9F722E0A4E440
:1000E000B1E001C01D92A53BB207E1F710E0CDE5FC
:1000F000D0E004C02197FE010E94C409CC35D1078D
:10010000C9F70E9454080C94CA090C940000FC0121
:10011000538D448D252F30E0842F90E0821B930B6C
:10012000541710F0CF96089501970895FC01918D12
:10013000828D981761F0A28DAE0FBF2FB11D5D9615
:100140008C91928D9F5F9F73928F90E008958FEFB7
:100150009FEF0895FC01918D828D981731F0828D6B
:10016000E80FF11D858D90E008958FEF9FEF0895C2
:10017000FC01918D228D892F90E0805C9F4F821B26
:1001800091098F7399270895FC01A48DA80FB92FA9
:10019000B11DA35ABF4F2C91848D90E001968F73AF
:1001A0009927848FA689B7892C93A089B1898C91CE
:1001B000837080648C93938D848D981306C002881D
:1001C000F389E02D80818F7D80830895EF92FF92E7
:1001D0000F931F93CF93DF93EC0181E0888F9B8D6A
:1001E0008C8D98131AC0E889F989808185FF15C024
:1001F0009FB7F894EE89FF896083E889F989808147
:100200008370806480839FBF81E090E0DF91CF9115
:100210001F910F91FF90EF900895F62E0B8D10E037
:100220000F5F1F4F0F731127E02E8C8D8E110CC0A6
:100230000FB607FCFACFE889F989808185FFF5CFF1
:10024000CE010E94C400F1CFEB8DEC0FFD2FF11D0C
:10025000E35AFF4FF0829FB7F8940B8FEA89FB892E
:1002600080818062CFCFCF93DF93EC01888D88238C
:10027000B9F0AA89BB89E889F9898C9185FD03C009
:10028000808186FD0DC00FB607FCF7CF8C9185FFEE
:10029000F2CF808185FFEDCFCE010E94C400E9CF6F
:1002A000DF91CF91089589E092E00E94B80021E0AB
:1002B000892B09F420E0822F089580E090E0892BBB
:1002C00029F00E94530181110C940000089590E0E0
:1002D000FC01EC55FF4F2491FC01E057FF4F349196
:1002E000FC01E458FF4FE491EE23C9F0222339F0DA
:1002F000233001F1A8F4213019F1223029F1F0E086
:10030000EE0FFF1FEE58FF4FA591B4918FB7F894F1
:10031000EC91611126C030953E233C938FBF089528
:100320002730A9F02830C9F0243049F780918000A7
:100330008F7D03C0809180008F7780938000DFCF16
:1003400084B58F7784BDDBCF84B58F7DFBCF809163
:10035000B0008F778093B000D2CF8091B0008F7DB6
:10036000F9CF3E2BDACF3FB7F8948091B30190914B
:10037000B401A091B501B091B60126B5A89B05C006
:100380002F3F19F00196A11DB11D3FBFBA2FA92F14
:10039000982F8827BC01CD01620F711D811D911D11
:1003A00042E0660F771F881F991F4A95D1F708957D
:1003B000089508950895AF92BF92CF92DF92EF9281
:1003C000FF920F931F93CF93DF936C017B018B01FF
:1003D000040F151FEB015E01AE18BF08C017D1074F
:1003E00059F06991D601ED91FC910190F081E02DD9
:1003F000C6010995892B79F7C501DF91CF911F912E
:100400000F91FF90EF90DF90CF90BF90AF90089545
:1004100020918601260F3327331F21323105ECF45A
:1004200020910302FC0190E080E0243069F082E03A
:100430000895A09186012191AC014A595E4FA40F05
:10044000B52FB11D2C930196861798F380918601E4
:10045000680F6093860180E0089581E0089510920E
:10046000030281E08093E2011092DD0161E082E10C
:100470000E94670161E083E10E946701E9EBF0E01F
:1004800080818E7F808380818D7F808388E48093CC
:10049000B80085E48093BC000895CF93DF9391E08A
:1004A000909365018823B9F0C091B800D091BA004B
:1004B0008091BC008A7B8093BC0060E082E10E9456
:1004C000670160E083E10E9467010E942F02D093E0
:1004D000BA00C093B800DF91CF910895CF92DF9218
:1004E000EF92FF920F931F93CF93DF93D82FC62FD6
:1004F000613208F098C00E94B3016B017C018091C9
:10050000030281116BC081E0809303028093E201BA
:100510009FEF9093E1011092E0019C0F9093DF0117
:100520008093DE018091DE01DD0FD82BD093DE01B8
:100530008091DD01813009F078C01092DD010E94C8
:10054000B3016B017C018091DE018093BB0080913F
:10055000050290910602A0910702B0910802892B32
:100560008A2B8B2BA1F00E94B30100910502109100
:10057000060220910702309108026C197D098E094C
:100580009F09061717072807390708F448C0809104
:10059000BC0083FDD8CF85EC8093BC000E94B301E2
:1005A0006B017C0180910302813009F440C080918D
:1005B000E0018C1710F4C091E001EDEBF1E0A3EE47
:1005C000B1E080E08C1355C08C2FDF91CF911F914B
:1005D0000F91FF90EF90DF90CF90089580910502EA
:1005E00090910602A0910702B0910802892B8A2BF4
:1005F0008B2B09F484CF0E94B30100910502109166
:10060000060220910702309108026C197D098E09BB
:100610009F09061717072807390708F070CF809140
:1006200004020E944D02C0E0CFCF85EEB5CF80918D
:10063000050290910602A0910702B0910802892B51
:100640008A2B8B2B09F4AECF0E94B30100910502D7
:100650001091060220910702309108026C197D0961
:100660008E099F09061717072807390708F09ACF40
:10067000D6CF91919D938F5FA5CF0895E091B8015A
:100680008091B701E81730F4F0E0ED51FE4F808122
:1006900090E008958FEF9FEF08959091B8018091B9
:1006A000B7012FEF3FEF981748F4E92FF0E0ED5135
:1006B000FE4F208130E09F5F9093B801C9010895FB
:1006C0008091B7019091B801891B990B0895CF9241
:1006D000DF92EF92FF920F931F93CF93DF937C01F2
:1006E000CB018A012091BC01222389F0EB016B012F
:1006F000C40ED51ECC15DD0569F06991D701ED91C9
:10070000FC910190F081E02DC7010995F3CF642F92
:100710000E940802C801DF91CF911F910F91FF90B5
:10072000EF90DF90CF900895CF93DF931F92CDB7D6
:10073000DEB769832091BC012223F9F02091B90131
:10074000203258F021E030E0FC013383228390E036
:1007500080E00F90DF91CF9108958091BA01E82F4A
:10076000F0E0EB5BFE4F998190838F5F8093BA013D
:100770008093B90181E090E0ECCF61E0CE01019679
:100780000E940802F7CFCF92DF92EF92FF920F9371
:100790001F93CF93DF93D091B90181E0D13208F05C
:1007A0009CC0C091BB010E94B3016B017C01809190
:1007B000030281116CC082E08093030281E0809388
:1007C000E2018FEF8093E1011092E001D093DF010D
:1007D000A5E4B1E0EDEBF1E080E0D8138DC010921C
:1007E000DE018091DE01CC0FC82BC093DE01809129
:1007F000DD01813009F084C01092DD010E94B30157
:100800006B017C018091DE018093BB008091050229
:1008100090910602A0910702B0910802892B8A2BC1
:100820008B2BA1F00E94B3010091050210910602EA
:1008300020910702309108026C197D098E099F09E9
:10084000061717072807390708F442C08091BC0033
:1008500083FDD8CF85EC8093BC000E94B3016B016F
:100860007C0180910302823009F44CC08091E10147
:100870008F3F09F469C08091E101803209F466C0BC
:100880008091E101803309F463C084E026C0809147
:10089000050290910602A0910702B0910802892BEF
:1008A0008A2B8B2B09F483CF0E94B30100910502A0
:1008B0001091060220910702309108026C197D09FF
:1008C0008E099F09061717072807390708F06FCF09
:1008D000809104020E944D0285E01092BA011092AC
:1008E000B9011092BC01DF91CF911F910F91FF9040
:1008F000EF90DF90CF9008959D9191938F5F6DCF92
:1009000085EEA9CF8091050290910602A091070281
:10091000B0910802892B8A2B8B2B09F4A2CF0E945D
:10092000B301009105021091060220910702309157
:1009300008026C197D098E099F09061717072807F9
:10094000390708F08ECFC4CF80E0C7CF82E0C5CF93
:1009500083E0C3CF1F93CF93DF93162FC2EBD2E078
:10096000A881B9819A8121E02093BC019093BB01B9
:100970001092BA011092B901ED91FC91119701907A
:10098000F081E02D682FCD01099588819981DC01E6
:10099000ED91FC910190F081E02D612F0995888106
:1009A0009981DF91CF911F910C94C30390E080E077
:1009B0000895EF92FF920F931F93CF93DF937C01E3
:1009C0008B01C2EBD2E0888199812A8131E030939A
:1009D000BC012093BB011092BA011092B901DC0155
:1009E000ED91FC910190F081E02D60E10995888105
:1009F00099810E94C30362E08A810E946E02109274
:100A0000B8018093B70188819981DC01ED91FC9157
:100A10000284F385E02D0995F7018083888199810F
:100A2000DC01ED91FC910284F385E02D0995F8013C
:100A30008083DF91CF911F910F91FF90EF900895E8
:100A4000CF93DF93C2EBD2E0A881B9819A8121E0F4
:100A50002093BC019093BB011092BA011092B9018E
:100A6000ED91FC9111970190F081E02D682FCD015F
:100A70000995888199810E94C30361E08A810E945F
:100A80006E021092B8018093B70188819981DC01D0
:100A9000ED91FC910284F385E02D0995DF91CF91D2
:100AA0000895AF92BF92CF92DF92EF92FF920F9391
:100AB0001F93CF93DF93C82FA62E12E00CE0B12C2A
:100AC000883028F0C85013E00DE0BB24B3948B2D80
:100AD0000E942005C12CD12C7601C39404C0CC0CFB
:100AE000DD1CEE1CFF1CCA95D2F792E0D82FDC2942
:100AF000A91619F0DC2DD095D823802F0E9420054F
:100B000092E0C82FCC29A91619F0CC2DC095C82386
:100B1000812F0E942005C82A6D2F8B2D0E94AA04C8
:100B20006C2F802F0E94AA046C2D812FDF91CF9112
:100B30001F910F91FF90EF90DF90CF90BF90AF90FB
:100B40000C94AA048FE00E942005803411F08032BA
:100B500039F48091440191E08927809344010895FC
:100B60009FEF980F923010F0843019F481E0809359
:100B7000AD010895009769F0FC0101900020E9F7AC
:100B80003197AF01481B590BBC0189E092E00C94EE
:100B9000DB0190E080E0089585ED8093BC008091BA
:100BA000050290910602A0910702B09108020796F3
:100BB000A11DB11D23E0B695A795979587952A9518
:100BC000D1F72091BC0024FD03C0109203020895C8
:100BD000409105025091060260910702709108024F
:100BE000452B462B472B69F30097A105B10541F032
:100BF0002AE22A95F1F700C00197A109B109E1CFD6
:100C0000809104020C944D021F920F920FB60F9226
:100C100011242F933F938F939F93AF93BF93809112
:100C2000AF019091B001A091B101B091B2013091AA
:100C3000AE0123E0230F2D3758F50196A11DB11DFC
:100C40002093AE018093AF019093B001A093B101C6
:100C5000B093B2018091B3019091B401A091B5011C
:100C6000B091B6010196A11DB11D8093B30190937F
:100C7000B401A093B501B093B601BF91AF919F911C
:100C80008F913F912F910F900FBE0F901F9018954D
:100C900026E8230F0296A11DB11DD2CF1F920F92FD
:100CA0000FB60F9211242F933F934F935F936F933F
:100CB0007F938F939F93AF93BF93EF93FF93E091B5
:100CC0000201F09103010995FF91EF91BF91AF915E
:100CD0009F918F917F916F915F914F913F912F9154
:100CE0000F900FBE0F901F9018951F920F920FB686
:100CF0000F9211242F933F934F935F936F937F93A2
:100D00008F939F93AF93BF93EF93FF93E091000175
:100D1000F09101010995FF91EF91BF91AF919F91E2
:100D20008F917F916F915F914F913F912F910F9094
:100D30000FBE0F901F9018951F920F920FB60F9233
:100D400011242F933F934F935F936F937F938F93D0
:100D50009F93AF93BF93EF93FF9389E092E00E943C
:100D6000C400FF91EF91BF91AF919F918F917F91BF
:100D70006F915F914F913F912F910F900FBE0F9008
:100D80001F9018951F920F920FB60F9211242F9358
:100D90008F939F93EF93FF93E0911902F0911A02C2
:100DA0008081E0911F02F091200282FD1BC09081A2
:100DB000809122028F5F8F7320912302821741F06E
:100DC000E0912202F0E0E75FFD4F958F80932202D1
:100DD000FF91EF919F918F912F910F900FBE0F90E8
:100DE0001F9018958081F4CF1F920F920FB60F922B
:100DF00011242F933F934F935F936F937F938F9320
:100E00009F93AF93BF93EF93FF938091B900887F37
:100E1000803609F44AC0F0F5883209F4A7C018F505
:100E2000803109F49BC0B8F4882309F4F9C08830F4
:100E300009F494C0FF91EF91BF91AF919F918F9171
:100E40007F916F915F914F913F912F910F900FBEC6
:100E50000F901F901895883109F488C0803251F79F
:100E60008093E10114C0803409F49DC040F48033C4
:100E7000B9F38833F9F68093E10185ECB0C0803591
:100E800009F485C0883509F496C0883499F60E9423
:100E9000CC05D0CF883909F48CC038F5883729F0D3
:100EA00050F4883611F0803729F683E080930302EE
:100EB0001092A80157C0883809F47BC0803919F016
:100EC000803809F0B7CF8091A801803208F071C056
:100ED000E091A80181E08E0F8093A8018091BB0072
:100EE000F0E0E857FE4F80833DC0803B39F0E0F4EE
:100EF000803A09F479C0883A09F09CCF84E0809365
:100F000003021092870110928601E091AB01F091EB
:100F1000AC0109958091860181110FC081E0809319
:100F200086011092660109C0803C09F4A6CF883C76
:100F300009F4A3CF883B09F07DCFE091870181E0E0
:100F40008E0F80938701F0E0EA59FE4F80818093F5
:100F5000BB00909187018091860129C08091DE01BC
:100F60008093BB0085EC8093BC0064CF9091E0013E
:100F70008091DF01981758F5E091E00181E08E0F34
:100F80008093E001F0E0E354FE4F8081E9CFE091EF
:100F9000E00181E08E0F8093E0018091BB00F0E0E2
:100FA000E354FE4F80839091E0018091DF01981718
:100FB000C8F285E8D8CFE091E00181E08E0F809300
:100FC000E0018091BB00F0E0E354FE4F808380910C
:100FD000E20181115CCF81E08093DD0184EA80939E
:100FE000BC001092030226CF85EC8093BC001092C7
:100FF00003028091A801803230F4E091A801F0E072
:10100000E857FE4F10826091A80170E0E091A901BD
:10101000F091AA0188E891E009951092A8010ACF01
:101020001092E10134CFE9E0F2E01382128288EEFF
:1010300093E0A0E0B0E084839583A683B78328E0A3
:1010400031E03183208325EC30E03587248724ECA0
:1010500030E03787268720EC30E0318B208B21EC85
:1010600030E0338B228B22EC30E0358B248B26EC66
:1010700030E0378B268B118E128E138E148EE6EA9B
:10108000F2E01382128284839583A683B7838AE178
:1010900091E091838083A2EBB2E087E212968C9379
:1010A0001297ED93FC930895CF93DF9300D0CDB7C3
:1010B000DEB7789484B5826084BD84B5816084BDD8
:1010C00085B5826085BD85B5816085BD80916E00E6
:1010D000816080936E001092810080918100826017
:1010E0008093810080918100816080938100809154
:1010F00080008160809380008091B1008460809343
:10110000B1008091B00081608093B00080917A003E
:10111000846080937A0080917A00826080937A0064
:1011200080917A00816080937A0080917A00806853
:1011300080937A001092C1001092B8011092B7010A
:101140001092BA011092B9010E942F0288ED91E02D
:101150009093AC018093AB0189ED91E09093AA014B
:101160008093A90160E28AE00E94AA048091B20201
:101170009091B3022091B40231E03093BC012093EE
:10118000BB011092BA011092B901DC01ED91FC9102
:101190000190F081E02D6CE009958091B202909170
:1011A000B302DC01ED91FC910190F081E02D6FEF35
:1011B00009958091B2029091B302DC01ED91FC910E
:1011C0000190F081E02D6FEF09958091B20290912E
:1011D000B3020E94C30362E088E00E94510562E00E
:1011E00089E00E94510562E08AE00E94510562E0B8
:1011F0008DE00E94510562E08EE00E94510561E0A1
:101200008FE00E94510562E080E00E94510562E09B
:1012100081E00E94510562E082E00E94510562E097
:1012200083E00E94510562E084E00E94510562E083
:1012300085E00E94510562E086E00E94510562E06F
:1012400087E00E9451058AE00E942005682F6F7B8D
:101250008AE00E94AA0467E685E00E94AA0467E08B
:1012600089E00E94AA0460E087E00E94AA04BE010F
:101270006F5F7F4FCE0102960E94D904E3E9F0E050
:101280002491EFE7F0E084918823C9F090E0880F83
:10129000991FFC01E859FF4F45915491FC01EE580C
:1012A000FF4FA591B4919FB7F894FA013081822F36
:1012B000809583238083EC91E22BEC939FBF82EA9D
:1012C00095E0909303018093020180916900837FF0
:1012D000886080936900E99A60E082E10E94AA0434
:1012E00060E083E10E94AA0400E010E08091AD017B
:1012F000882359F08FE00E942005813021F488E294
:1013000091E00E94BA051092AD0183E10E94200590
:1013100090E0875C9E4F0E94BA05BE016F5F7F4FD1
:10132000CE0102960E94D9040E94B3014B015C01D8
:1013300084E6C82ED12CE12CF12C0E94B30168194F
:1013400079098A099B09683E734081059105A8F3D4
:10135000F1E0CF1AD108E108F10828EE820E23E06F
:10136000921EA11CB11CC114D104E104F10429F79F
:101370000115110509F4BACF0E945301882309F41D
:10138000B5CF0E940000B2CFEE0FFF1F0590F49181
:08139000E02D0994F894FFCF51
:10139800DA01DA0100000000E600DB018700330112
:1013A800B8009600AA000000000094036703D60462
:1013B8003D0360034D033E03427574746F6E312024
:1013C800507265737365640A00506F72742042200E
:0413D80069733A00FB
:00000001FF
